S01000004C6162352D4144432E73726563DB
S11300000C945A000C9464000C9464000C946400E6
S11300100C9464000C9464000C9464000C946400CC
S11300200C9464000C9464000C9464000C946400BC
S11300300C9464000C9464000C9464000C946400AC
S11300400C9464000C9464000C9464000C9464009C
S11300500C9464000C9464000C9464000C9464008C
S11300600C9464000C9464000C9464000C9464007C
S11300700C9464000C9464000C9464000C9464006C
S11300800C9464000C9464000C9464000C9464005C
S11300900C9464000C9464000C9464000C9464004C
S11300A00C9464000C9464000C9464000C9464003C
S11300B00C94640011241FBECFEFD8E0DEBFCDBF87
S11300C00E94FB000C9418030C940000ECE7F0E091
S11300D080818064808380818F7780838081806247
S11300E08083EAE7F0E0808180688083808181609A
S11300F08083808182608083808184608083109289
S11301007B000895CF93DF9300D0CDB7DEB7ECE743
S1130110F0E090E690839081892B8083EAE7F0E019
S1130120808180648083808184FFFDCF8091790009
S113013090E09A83898389819A810F900F90DF914F
S1130140CF910895BC0180E090E00E94F50120E089
S113015030E040EA5CE30E9483020895CF92DF928C
S1130160EF92FF926B017C010E94C601862F90E002
S1130170C0960E944A018EE290E00E944A01C701A3
S1130180B6010E94BF01072E000C880B990B0E9438
S1130190F7019B01AC01C701B6010E94520120E0A6
S11301A030E040E251E40E9483020E94C601862F9F
S11301B090E0C0960E944A0120E030E048EC52E40E
S11301C0C701B6010E9483020E94BF01CB016AE00D
S11301D070E00E94F002C0960E944A018AE090E01A
S11301E00E944A018DE090E00E944A01FF90EF9046
S11301F0DF90CF900895CF93DF9300D000D0CDB798
S1130200DEB70E94660087E690E00E94250110E0B8
S113021001E0D12CE12EF12CC7018F5B9F4F0E948E
S11302204A01C7010E9482000E94A20069837A8366
S11302308B839C8369817A818B819C810E94AE002F
S1130240802F11118D2D182FE5CF9C01E2ECF0E0E9
S113025090819F7B908390819F779083A1ECB0E005
S11302609C919B7F9C9390819260908390819460F9
S113027090833093C5002093C4008C9188608C9344
S113028080818F7E808380818F7E80838081877F41
S113029080830895E0ECF0E0908195FFFDCF80939A
S11302A0C60008955058BB27AA270E946A010C94DF
S11302B049020E943B0238F00E94420220F039F4C5
S11302C09F3F19F426F40C9438020EF4E095E7FBF2
S11302D00C943202E92F0E945A0258F3BA176207AB
S11302E073078407950720F079F4A6F50C947C0233
S11302F00EF4E0950B2EBA2FA02D0B01B90190013D
S11303000C01CA01A0011124FF27591B99F0593F80
S113031050F4503E68F11A16F040A22F232F342FC8
S11303204427585FF3CF469537952795A795F04016
S11303305395C9F77EF41F16BA0B620B730B840B2B
S1130340BAF09150A1F0FF0FBB1F661F771F881FE3
S1130350C2F70EC0BA0F621F731F841F48F487953B
S113036077956795B795F7959E3F08F0B0CF93952D
S1130370880F08F09927EE0F9795879508950E94A6
S1130380C6016894B1110C947D0208950E94620222
S113039088F09F5798F0B92F9927B751B0F0E1F042
S11303A0660F771F881F991F1AF0BA95C9F714C0F2
S11303B0B13091F00E947C02B1E008950C947C026B
S11303C0672F782F8827B85F39F0B93FCCF386952B
S11303D077956795B395D9F73EF490958095709588
S11303E061957F4F8F4F9F4F0895E89409C097FB05
S11303F03EF490958095709561957F4F8F4F9F4FF8
S11304009923A9F0F92F96E9BB279395F69587953B
S113041077956795B795F111F8CFFAF4BB0F11F4FE
S113042060FF1BC06F5F7F4F8F4F9F4F16C08823A5
S113043011F096E911C0772321F09EE8872F762FDB
S113044005C0662371F096E8862F70E060E02AF01C
S11304509A95660F771F881FDAF7880F9695879508
S113046097F9089597F99F6780E870E060E0089530
S11304709FEF80EC089500240A94161617061806B8
S11304800906089500240A94121613061406050694
S11304900895092E0394000C11F4882352F0BB0F25
S11304A040F4BF2B11F460FF04C06F5F7F4F8F4F88
S11304B09F4F089557FD9058440F551F59F05F3FC3
S11304C071F04795880F97FB991F61F09F3F79F072
S11304D087950895121613061406551FF2CF4695F4
S11304E0F1DF08C0161617061806991FF1CF869576
S11304F07105610508940895E894BB27662777275A
S1130500CB0197F908950E9496020C9449020E9427
S11305103B0238F00E94420220F0952311F00C9423
S113052032020C94380211240C947D020E945A0267
S113053070F3959FC1F3950F50E0551F629FF00132
S1130540729FBB27F00DB11D639FAA27F00DB11D4B
S1130550AA1F649F6627B00DA11D661F829F2227D4
S1130560B00DA11D621F739FB00DA11D621F839F5B
S1130570A00D611D221F749F3327A00D611D231F31
S1130580849F600D211D822F762F6A2F11249F577F
S113059050409AF0F1F088234AF0EE0FFF1FBB1F82
S11305A0661F771F881F91505040A9F79E3F510541
S11305B080F00C9432020C947D025F3FE4F3983E89
S11305C0D4F3869577956795B795F795E7959F5FEB
S11305D0C1F7FE2B880F911D9695879597F908957D
S11305E097FB072E16F4009407D077FD09D00E94DC
S11305F0040307FC05D03EF4909581959F4F089520
S1130600709561957F4F0895AA1BBB1B51E107C0EC
S1130610AA1FBB1FA617B70710F0A61BB70B881F8E
S1130620991F5A95A9F780959095BC01CD0108951D
S1070630F894FFCF68
S9030000FC
