S01000004C6162352D4144432E73726563DB
S11300000C945A000C9464000C9464000C946400E6
S11300100C9464000C9464000C9464000C946400CC
S11300200C9464000C9464000C9464000C946400BC
S11300300C9464000C9464000C9464000C946400AC
S11300400C9464000C9464000C9464000C9464009C
S11300500C9464000C9464000C9464000C9464008C
S11300600C9464000C9464000C9464000C9464007C
S11300700C9464000C9464000C9464000C9464006C
S11300800C9464000C9464000C9464000C9464005C
S11300900C9464000C9464000C9464000C9464004C
S11300A00C9464000C9464000C9464000C9464003C
S11300B00C94640011241FBECFEFD8E0DEBFCDBF87
S11300C00E94D4000C946B030C940000ECE7F0E065
S11300D080818064808380818F7780838081806247
S11300E08083EAE7F0E0808180688083808181609A
S11300F08083808182608083808184608083109289
S11301007B000895CF92DF92EF92FF926B017C0106
S11301100E94F401862F90E0C0960E9406018EE2B0
S113012090E00E940601C701B6010E94ED01072E6E
S1130130000C880B990B0E9425029B01AC01C7019E
S1130140B6010E940E0120E030E040E251E40E943A
S1130150B1020E94F401862F90E0C0960E9406012D
S113016020E030E048EC52E4C701B6010E94B1023D
S11301700E941E0320E030E048EC52E40E947B0120
S11301800E94F401862F90E0C0960E9406018AE046
S113019090E00E9406018DE090E00E940601FF902D
S11301A0EF90DF90CF9008950E94660080E895E27A
S11301B00E94E10064EA70E78DE490E40E9482000A
S11301C0F9CF9C01E2ECF0E090819F7B90839081D9
S11301D09F779083A1ECB0E09C919B7F9C9390814E
S11301E0926090839081946090833093C5002093B3
S11301F0C4008C9188608C9380818F7E8083808101
S11302008F7E80838081877F80830895E0ECF0E097
S1130210908195FFFDCF8093C60008955058BB2769
S1130220AA270E9426010C9477020E94690238F0E2
S11302300E94700220F039F49F3F19F426F40C94C4
S113024066020EF4E095E7FB0C946002E92F0E942D
S1130250880258F3BA17620773078407950720F0DA
S113026079F4A6F50C94AA020EF4E0950B2EBA2F9D
S1130270A02D0B01B90190010C01CA01A0011124A8
S1130280FF27591B99F0593F50F4503E68F11A1654
S1130290F040A22F232F342F4427585FF3CF4695E5
S11302A037952795A795F0405395C9F77EF41F1607
S11302B0BA0B620B730B840BBAF09150A1F0FF0FD1
S11302C0BB1F661F771F881FC2F70EC0BA0F621FBD
S11302D0731F841F48F4879577956795B795F795AD
S11302E09E3F08F0B0CF9395880F08F09927EE0F42
S11302F09795879508950E948F010C9477020E9428
S1130300700258F00E94690240F029F45F3F29F01E
S11303100C94600251110C94AB020C9466020E947E
S1130320880268F39923B1F3552391F3951B550B78
S1130330BB27AA2762177307840738F09F5F5F4FB4
S1130340220F331F441FAA1FA9F335D00E2E3AF0F3
S1130350E0E832D091505040E695001CCAF72BD00B
S1130360FE2F29D0660F771F881FBB1F261737075C
S11303704807AB07B0E809F0BB0B802DBF01FF278E
S113038093585F4F3AF09E3F510578F00C94600209
S11303900C94AB025F3FE4F3983ED4F386957795D3
S11303A06795B795F7959F5FC9F7880F911D969547
S11303B0879597F90895E1E0660F771F881FBB1FA3
S11303C0621773078407BA0720F0621B730B840B50
S11303D0BA0BEE1F88F7E09508950E94F401689423
S11303E0B1110C94AB0208950E94900288F09F57BB
S11303F098F0B92F9927B751B0F0E1F0660F771F45
S1130400881F991F1AF0BA95C9F714C0B13091F03A
S11304100E94AA02B1E008950C94AA02672F782FD3
S11304208827B85F39F0B93FCCF3869577956795FF
S1130430B395D9F73EF490958095709561957F4F6B
S11304408F4F9F4F0895E89409C097FB3EF4909511
S11304508095709561957F4F8F4F9F4F9923A9F099
S1130460F92F96E9BB279395F69587957795679528
S1130470B795F111F8CFFAF4BB0F11F460FF1BC06C
S11304806F5F7F4F8F4F9F4F16C0882311F096E9FF
S113049011C0772321F09EE8872F762F05C06623AD
S11304A071F096E8862F70E060E02AF09A95660F66
S11304B0771F881FDAF7880F9695879597F908951F
S11304C097F99F6780E870E060E008959FEF80EC03
S11304D0089500240A9416161706180609060895A6
S11304E000240A9412161306140605060895092E0C
S11304F00394000C11F4882352F0BB0F40F4BF2B7B
S113050011F460FF04C06F5F7F4F8F4F9F4F0895BA
S113051057FD9058440F551F59F05F3F71F04795B0
S1130520880F97FB991F61F09F3F79F08795089595
S1130530121613061406551FF2CF4695F1DF08C0B4
S1130540161617061806991FF1CF869571056105D1
S113055008940895E894BB2766277727CB0197F979
S113056008950E94C4020C9477020E94690238F034
S11305700E94700220F0952311F00C9460020C94F8
S1130580660211240C94AB020E94880270F3959FBA
S1130590C1F3950F50E0551F629FF001729FBB2776
S11305A0F00DB11D639FAA27F00DB11DAA1F649F12
S11305B06627B00DA11D661F829F2227B00DA11DC5
S11305C0621F739FB00DA11D621F839FA00D611D4B
S11305D0221F749F3327A00D611D231F849F600D6C
S11305E0211D822F762F6A2F11249F5750409AF095
S11305F0F1F088234AF0EE0FFF1FBB1F661F771F21
S1130600881F91505040A9F79E3F510580F00C94EB
S113061060020C94AB025F3FE4F3983ED4F38695FA
S113062077956795B795F795E7959F5FC1F7FE2B8B
S1130630880F911D9695879597F908950E949002C9
S1130640E8F09E37E8F09639B8F49E3848F4672FFE
S1130650782F8827985FF9CF869577956795939536
S11306609539D0F3B62FB1706B0F711D811D20F435
S113067087957795679593950C9442030C945D0345
S11306800C94AB02882371F4772321F09850872BC4
S1130690762F07C0662311F499270DC09051862B3D
S11306A070E060E02AF09A95660F771F881FDAF7EA
S11306B0880F9695879597F908959F3F31F091504B
S11306C020F4879577956795B795880F911D969532
S10D06D0879597F90895F894FFCF79
S9030000FC
