:100000000C945A000C9464000C9464000C946400EA
:100010000C9464000C9464000C9464000C946400D0
:100020000C9464000C9464000C9464000C946400C0
:100030000C9464000C9464000C9464000C946400B0
:100040000C9464000C9464000C9464000C946400A0
:100050000C9464000C9464000C9464000C94640090
:100060000C9464000C9464000C9464000C94640080
:100070000C9464000C9464000C9464000C94640070
:100080000C9464000C9464000C9464000C94640060
:100090000C9464000C9464000C9464000C94640050
:1000A0000C9464000C9464000C9464000C94640040
:1000B0000C94640011241FBECFEFD8E0DEBFCDBF8B
:1000C0000E9400010C9496030C940000ECE7F0E011
:1000D00080818064808380818F778083808180624B
:1000E0008083EAE7F0E0808180688083808181609E
:1000F000808380818260808380818460808310928D
:100100007B000895CF93DF9300D0CDB7DEB7ECE747
:10011000F0E090E690839081892B8083EAE7F0E01D
:10012000808180648083808184FFFDCF809179000D
:1001300090E09A83898389819A810F900F90DF9153
:10014000CF910895BC0180E090E00E94FA0120E088
:1001500030E040EA5BE30E94EA020895CF92DF922A
:10016000EF92FF926B017C010E94CB01862F90E001
:10017000C0960E944F018EE290E00E944F01C7019D
:10018000B6010E94C401072E000C880B990B0E9437
:10019000FC019B01AC01C701B6010E94570120E0A0
:1001A00030E040E251E40E94EA020E94CB01862F37
:1001B00090E0C0960E944F012DEC3CEC4CEC5DE3CE
:1001C000C701B6010E94420220E030E048EC52E450
:1001D0000E94EA020E9457030E94CB01862F90E002
:1001E000C0960E944F018AE090E00E944F018DE08E
:1001F00090E00E944F01FF90EF90DF90CF90089524
:10020000CF93DF9300D000D0CDB7DEB70E94660059
:1002100087E690E00E942A0110E001E0D12CE12E57
:10022000F12CC7018F5B9F4F0E944F01C7010E94B5
:1002300082000E94A20069837A838B839C836981F8
:100240007A818B819C810E94AE00802F11118D2DAF
:10025000182FE5CF9C01E2ECF0E090819F7B90832A
:1002600090819F779083A1ECB0E09C919B7F9C93C1
:100270009081926090839081946090833093C500C8
:100280002093C4008C9188608C9380818F7E8083C2
:1002900080818F7E80838081877F80830895E0ECDA
:1002A000F0E0908195FFFDCF8093C60008955058EF
:1002B000BB27AA270E946F010C94B0020E94A202E1
:1002C00038F00E94A90220F039F49F3F19F426F477
:1002D0000C949F020EF4E095E7FB0C948B02E92F3F
:1002E0000E94C10258F3BA17620773078407950783
:1002F00020F079F4A6F50C94E3020EF4E0950B2EB1
:10030000BA2FA02D0B01B90190010C01CA01A00167
:100310001124FF27591B99F0593F50F4503E68F1C2
:100320001A16F040A22F232F342F4427585FF3CF03
:10033000469537952795A795F0405395C9F77EF4D4
:100340001F16BA0B620B730B840BBAF09150A1F01D
:10035000FF0FBB1F661F771F881FC2F70EC0BA0FA3
:10036000621F731F841F48F4879577956795B7952B
:10037000F7959E3F08F0B0CF9395880F08F0992726
:10038000EE0F9795879508950E94CB016894B1115F
:100390000C94E40208950E94C90288F09F5798F0D7
:1003A000B92F9927B751B0F0E1F0660F771F881F7A
:1003B000991F1AF0BA95C9F714C0B13091F00E9494
:1003C000E302B1E008950C94E302672F782F8827A9
:1003D000B85F39F0B93FCCF3869577956795B395BB
:1003E000D9F73EF490958095709561957F4F8F4F2A
:1003F0009F4F0895E89409C097FB3EF4909580952F
:10040000709561957F4F8F4F9F4F9923A9F0F92FDA
:1004100096E9BB279395F695879577956795B79558
:10042000F111F8CFFAF4BB0F11F460FF1BC06F5F3E
:100430007F4F8F4F9F4F16C0882311F096E911C050
:10044000772321F09EE8872F762F05C0662371F071
:1004500096E8862F70E060E02AF09A95660F771F85
:10046000881FDAF7880F9695879597F908950E9467
:10047000A20220F019F00E94A90250F40C949F02ED
:100480000C94E402E92F0E94C10288F35523B1F3D2
:10049000E7FB6217730784079507A8F189F3E92F33
:1004A000FF2788232AF03197660F771F881FDAF716
:1004B000952F5527442332F091505040220F331F7F
:1004C000441FD2F7BB27E91BF50B621B730B840B90
:1004D000B109B1F222F4620F731F841FB11D31976D
:1004E0002AF0660F771F881FBB1FEFCF9150504037
:1004F00062F041F0882332F0660F771F881F915019
:100500005040C1F793950C94910286957795679525
:100510009F5FD9F7F7CF97F99F6780E870E060E0B9
:1005200008959F3F31F0915020F487957795679516
:10053000B795880F911D9695879597F908959FEF28
:1005400080EC089500240A9416161706180609066A
:10055000089500240A941216130614060506089539
:10056000092E0394000C11F4882352F0BB0F40F4C1
:10057000BF2B11F460FF04C06F5F7F4F8F4F9F4F01
:10058000089557FD9058440F551F59F05F3F71F083
:100590004795880F97FB991F61F09F3F79F08795EA
:1005A0000895121613061406551FF2CF4695F1DF73
:1005B00008C0161617061806991FF1CF8695710503
:1005C000610508940895E894BB2766277727CB0137
:1005D00097F908950E94FD020C94B0020E94A202B5
:1005E00038F00E94A90220F0952311F00C948B02A0
:1005F0000C949F0211240C94E4020E94C10270F337
:10060000959FC1F3950F50E0551F629FF001729FB7
:10061000BB27F00DB11D639FAA27F00DB11DAA1FC6
:10062000649F6627B00DA11D661F829F2227B00D13
:10063000A11D621F739FB00DA11D621F839FA00D9E
:10064000611D221F749F3327A00D611D231F849FEE
:10065000600D211D822F762F6A2F11249F57504045
:100660009AF0F1F088234AF0EE0FFF1FBB1F661FC0
:10067000771F881F91505040A9F79E3F510580F089
:100680000C948B020C94E4025F3FE4F3983ED4F3A5
:10069000869577956795B795F795E7959F5FC1F72D
:1006A000FE2B880F911D9695879597F908950E94C6
:1006B000C902E8F09E37E8F09639B8F49E3848F45D
:1006C000672F782F8827985FF9CF8695779567955C
:1006D00093959539D0F3B62FB1706B0F711D811DB5
:1006E00020F487957795679593950C947B030C94EC
:1006F00091020C94E402882371F4772321F098503E
:10070000872B762F07C0662311F499270DC09051CF
:10071000862B70E060E02AF09A95660F771F881F9D
:10072000DAF7880F9695879597F90895F894FFCF93
:00000001FF
