S00C00006C6162372E73726563B2
S11300000C945A000C946C000C946C000C946C00CE
S11300100C946C000C946C000C946C000C946C00AC
S11300200C946C000C946C000C946C000C946C009C
S11300300C946C000C946C000C9473000C946C0085
S11300400C946C000C946C000C946C000C946C007C
S11300500C946C000C946C000C946C000C946C006C
S11300600C946C000C946C000C946C000C946C005C
S11300700C946C000C946C000C946C000C946C004C
S11300800C946C000C946C000C946C000C946C003C
S11300900C946C000C946C000C946C000C946C002C
S11300A00C946C000C946C000C946C000C946C001C
S11300B00C946C0011241FBECFEFD8E0DEBFCDBF7F
S11300C021E0A0E0B1E001C01D92A030B207E1F749
S11300D00E9497000C94A7000C94000095B180E254
S11300E0892785B908951F920F920FB60F92112494
S11300F02F933F934F935F936F937F938F939F932C
S1130100AF93BF93EF93FF930E946E00FF91EF9123
S1130110BF91AF919F918F917F916F915F914F911B
S11301203F912F910F900FBE0F901F901895259A15
S11301300E949C007894FFCF85B5856085BDEEE66E
S1130140F0E08081826080838AE087BD0895F8941E
S1050150FFCFDB
S9030000FC
