S00C00006C6162372E73726563B2
S11300000C945A000C946C000C946C000C946C00CE
S11300100C946C000C946C000C946C000C946C00AC
S11300200C946C000C946C000C946C000C946C009C
S11300300C946C000C946C000C9473000C946C0085
S11300400C946C000C946C000C946C000C946C007C
S11300500C946C000C946C000C946C000C946C006C
S11300600C946C000C946C000C946C000C946C005C
S11300700C946C000C946C000C946C000C946C004C
S11300800C946C000C946C000C946C000C946C003C
S11300900C946C000C946C000C946C000C946C002C
S11300A00C946C000C946C000C946C000C946C001C
S11300B00C946C0011241FBECFEFD8E0DEBFCDBF7F
S11300C021E0A0E0B1E001C01D92A230B207E1F747
S11300D00E94A8000C94BB000C94000095B180E22F
S11300E0892785B908951F920F920FB60F92112494
S11300F02F933F934F935F936F937F938F939F932C
S1130100AF93BF93EF93FF9380910001909101010E
S11301108436910539F40E946E0010920101109208
S1130120000105C001969093010180930001FF91A5
S1130130EF91BF91AF919F918F917F916F915F915B
S11301404F913F912F910F900FBE0F901F901895D4
S1130150259A0E94AD007894FFCF84B5826084BD57
S113016085B5856085BDEEE6F0E0808182608083A0
S10D01708BE987BD0895F894FFCFD2
S9030000FC
