:100000000C949B000C94AD000C94AD000C94AD00CE
:100010000C94AD000C94AD000C94AD000C94AD00AC
:100020000C94AD000C94AD000C94AD000C94AD009C
:100030000C94AD000C94AD000C94AD000C94AD008C
:100040000C94AD000C94AD000C94AD000C94AD007C
:100050000C94AD000C944C010C94AD000C94AD00CC
:100060000C94AD000C94AD000C94AD000C94AD005C
:100070000C94AD000C94AD000C94AD000C94AD004C
:100080000C94AD000C94AD000C94AD000C94AD003C
:100090000C94AD000C94AD000C94AD000C94AD002C
:1000A0000C94AD000C94AD000C94AD000C94AD001C
:1000B0000C94AD0007634236B79BD8A71A3968562F
:1000C00018AEBAAB558C1D3CB7CC5763BD6DEDFD7A
:1000D000753EF6177231BF000000803F0800000037
:1000E000BE922449123EABAAAA2ABECDCCCC4C3E2D
:1000F00000000080BEABAAAAAA3E00000000BF001C
:100100000000803F0000000000084178D3BB438717
:10011000D1133D190E3CC3BD4282AD2B3E68EC822B
:1001200076BED98FE1A93E4C80EFFFBE01C4FF7FB0
:100130003F000000000011241FBECFEFD8E0DEBF5B
:10014000CDBF21E0A0E0B1E001C01D92A836B2070A
:10015000E1F70E94BB010C94F90D0C940000CF93C1
:10016000DF93CDB7DEB78CE790E02CE730E0F90104
:1001700020812064FC0120838CE790E02CE730E0B4
:10018000F90120812F77FC0120838CE790E02CE798
:1001900030E0F90120812062FC0120838AE790E0B1
:1001A0002AE730E0F90120812068FC0120838AE7FA
:1001B00090E02AE730E0F90120812860FC012083EB
:1001C0008AE790E02AE730E0F90120812260FC0113
:1001D00020838AE790E02AE730E0F901208124605B
:1001E000FC0120838BE790E0FC0110828CE790E01B
:1001F00025E6FC0120838AE790E02AE730E0F90158
:1002000020812064FC0120830000DF91CF910895BC
:10021000CF93DF931F92CDB7DEB789838CE790E051
:1002200020E6FC0120838CE790E02CE730E0F90128
:1002300030812981232BFC0120838AE790E02AE783
:1002400030E0F90120812064FC01208300000F9040
:10025000DF91CF910895CF93DF931F92CDB7DEB793
:1002600089838981882F90E0A0E0B0E0BC01CD01B6
:100270000E94AF0ADC01CB0120E030E040EA5CE301
:10028000BC01CD010E94A40BDC01CB01BC01CD015E
:100290000F90DF91CF9108951F920F9200905F0011
:1002A0000F9211242F933F934F935F936F937F93FC
:1002B0008F939F93AF93BF93EF93FF93CF93DF936E
:1002C000CDB7DEB7809103018823F9F48091010155
:1002D000823311F41092010180910101882F90E086
:1002E00029E730E0F90120818A5C9E4FFC012083E0
:1002F000809101018F5F8093010184E0809303016D
:10030000809103010E94080121C080910301843083
:10031000E9F480910201823311F41092020180917C
:100320000201882F90E029E730E0F90120818C5FFD
:100330009E4FFC012083809102018F5F8093020118
:1003400010920301809103010E9408010000DF91D7
:10035000CF91FF91EF91BF91AF919F918F917F913D
:100360006F915F914F913F912F910F9000925F009D
:100370000F901F901895CF93DF93CDB7DEB7A2975C
:100380000FB6F894DEBF0FBECDBF19821A821B8252
:100390001C821D821E821F82188619861A861B8661
:1003A0001C861D861B8A1C8A1D8A1E8A0E94AA031F
:1003B0000E94AF00789480910001882F90E0C2964F
:1003C000C29744F08091000192E3292F281B822FCD
:1003D0008E8702C082E38E87F8941982188A1F865E
:1003E00039C08F8598898C5F9E4FFC018081282FB2
:1003F00030E08F85988901968C5F9E4FFC0180814B
:10040000882F90E0820F931F092E000CAA0BBB0BC4
:10041000BC01CD010E94B10ADC01CB0120E030E03B
:1004200040E05FE3BC01CD010E94A40BDC01CB01E5
:10043000BC01CD010E94800ADC01CB01282F8F85F1
:1004400098898C5F9E4FFC0120838F859889019647
:10045000988B8F878F8598890C9718F21A8A198A3A
:10046000B5C089899A898A5C9E4FFC0190818981F7
:10047000891738F489899A898A5C9E4FFC018081AA
:10048000898389899A898A5C9E4FFC0180810E94B8
:100490002B01DC01CB0123EC35EF48EE5FE3BC011F
:1004A000CD010E949A09DC01CB012DEC3CEC46E821
:1004B00051E4BC01CD010E94A40BDC01CB018F8B68
:1004C000988FA98FBA8F8F89988DA98DBA8D20E0CA
:1004D00030E040E050E4BC01CD010E94110CDC0191
:1004E000CB019C01AD016A817B818C819D810E9441
:1004F0009B09DC01CB018A839B83AC83BD83898903
:100500009A898C5F9E4FFC0180810E942B01DC0147
:10051000CB0123EC35EF48EE5FE3BC01CD010E9437
:100520009A09DC01CB0120E030E04AE754E4BC0149
:10053000CD010E94A40BDC01CB018B8F9C8FAD8F72
:10054000BE8F8B8D9C8DAD8DBE8D20E030E040E068
:1005500050E4BC01CD010E94110CDC01CB019C01D7
:10056000AD016E817F81888599850E949B09DC01A0
:10057000CB018E839F83A887B9872B8D3C8D4D8DB2
:100580005E8D6F89788D898D9A8D0E94A40BDC0118
:10059000CB0120E030E04AE754E4BC01CD010E94E9
:1005A000070ADC01CB019C01AD016A857B858C8546
:1005B0009D850E949B09DC01CB018A879B87AC87C4
:1005C000BD8789899A8901969A8B898B80910001D0
:1005D000282F30E08E85882F90E0280F391F8989D9
:1005E0009A89821793070CF43CCF8E85882F90E070
:1005F000092E000CAA0BBB0BBC01CD010E94B10A55
:10060000DC01CB019C01AD016A817B818C819D81E4
:100610000E94070ADC01CB01BC01CD010E94670CDE
:10062000DC01CB018A839B83AC83BD838E85882FBD
:1006300090E0092E000CAA0BBB0BBC01CD010E945F
:10064000B10ADC01CB019C01AD016E817F818885FF
:1006500099850E94070ADC01CB01BC01CD010E94F3
:10066000670CDC01CB018E839F83A887B98720E0CC
:1006700030E048E452E46A857B858C859D850E9444
:10068000070ADC01CB018A879B87AC87BD872E8157
:100690003F81488559856A817B818C819D810E943B
:1006A000A40BDC01CB0120E030E04AE754E4BC01BC
:1006B000CD010E94070ADC01CB019C01AD016A85D6
:1006C0007B858C859D850E94070ADC01CB018B8B85
:1006D0009C8BAD8BBE8B789489810E942B01DC01B1
:1006E000CB0123EC35EF48EE5FE3BC01CD010E9466
:1006F0009A09DC01CB012DEC3CEC46E851E4BC014D
:10070000CD010E94A40BDC01CB018F8F98A3A9A37C
:10071000BAA38F8D98A1A9A1BAA1BC01CD010E9455
:1007200006048E819F81A885B985BC01CD010E94F8
:1007300013068A859B85AC85BD85BC01CD010E94D1
:100740000F088B899C89AD89BE89BC01CD010E94AF
:100750003B0731CECF93DF9300D0CDB7DEB79A837E
:10076000898382EC90E022EC30E0F90120812F7B3C
:10077000FC01208382EC90E022EC30E0F901208142
:100780002F77FC01208382EC90E022EC30E0F9012D
:1007900020812260FC01208382EC90E022EC30E09A
:1007A000F90120812460FC01208384EC90E027E69D
:1007B00030E0FC013183208381EC90E021EC30E0DB
:1007C000F90120812860FC01208300000F900F9028
:1007D000DF91CF910895CF93DF931F92CDB7DEB70E
:1007E0008983000080EC90E0FC018081882F90E0FC
:1007F00080729927892BB1F386EC90E02981FC0166
:10080000208300000F90DF91CF910895CF92DF9267
:10081000EF92FF92CF93DF93CDB7DEB72B970FB652
:10082000F894DEBF0FBECDBF688779878A879B8724
:1008300086E50E94EB038DE30E94EB0320E030E0AD
:1008400040E251E4688579858A859B850E949F0BEB
:1008500088230CF4BDC0688579858A859B850E94B4
:10086000800ADC01CB01982F8DEC989F812D1124FB
:1008700086958695869589838981805D0E94EB03A4
:10088000688579858A859B850E94800ADC01CB0179
:10089000282F8981880F982F990F990F890F81959B
:1008A000820F8A838A81805D0E94EB038EE20E9420
:1008B000EB03688579858A859B850E94800ADC0127
:1008C000CB01882F90E0092E000CAA0BBB0BBC01BA
:1008D000CD010E94B10ADC01CB019C01AD0168850C
:1008E00079858A859B850E949A09DC01CB0120E0ED
:1008F00030E040E251E4BC01CD010E94A40BDC01D8
:10090000CB01BC01CD010E94800ADC01CB018B83AD
:100910008B81805D0E94EB0320E030E048EC52E4E4
:10092000688579858A859B850E94A40BDC01CB01B3
:100930006C017D01688579858A859B850E94800A86
:10094000DC01CB01282F30E044E6429FC001439FE9
:10095000900D1124092E000CAA0BBB0BBC01CD017C
:100960000E94B10ADC01CB019C01AD01C701B601B7
:100970000E949A09DC01CB016C017D018B81882FDB
:1009800090E0880F991F9C01220F331F220F331F05
:10099000820F931F092E000CAA0BBB0BBC01CD01CB
:1009A0000E94B10ADC01CB019C01AD01C701B60177
:1009B0000E949A09DC01CB01BC01CD010E94800A92
:1009C000DC01CB018C838C81805D0E94EB0317C11D
:1009D000688579858A859B850E94800ADC01CB0128
:1009E000805D0E94EB038EE20E94EB0368857985AF
:1009F0008A859B850E94800ADC01CB01882F90E0CC
:100A0000092E000CAA0BBB0BBC01CD010E94B10A40
:100A1000DC01CB019C01AD01688579858A859B85C8
:100A20000E949A09DC01CB0120E030E040E251E471
:100A3000BC01CD010E94A40BDC01CB01BC01CD01A6
:100A40000E94800ADC01CB018D838D81805D0E9434
:100A5000EB0320E030E048EC52E4688579858A8534
:100A60009B850E94A40BDC01CB016C017D01688594
:100A700079858A859B850E94800ADC01CB01282F1D
:100A800030E044E6429FC001439F900D1124092E9F
:100A9000000CAA0BBB0BBC01CD010E94B10ADC010A
:100AA000CB019C01AD01C701B6010E949A09DC018E
:100AB000CB016C017D018D81882F90E0880F991FFB
:100AC0009C01220F331F220F331F820F931F092E09
:100AD000000CAA0BBB0BBC01CD010E94B10ADC01CA
:100AE000CB019C01AD01C701B6010E949A09DC014E
:100AF000CB01BC01CD010E94800ADC01CB018E83B9
:100B00008E81805D0E94EB0320E030E04AE754E4F0
:100B1000688579858A859B850E94A40BDC01CB01C1
:100B20006C017D01688579858A859B850E94800A94
:100B3000DC01CB01482F50E028EE33E0429FC0019A
:100B4000439F900D529F900D1124092E000CAA0B6B
:100B5000BB0BBC01CD010E94B10ADC01CB019C01A1
:100B6000AD01C701B6010E949A09DC01CB016C01FD
:100B70007D018E81882F90E0880F991F9C01220FA4
:100B8000331F220F331F820F931F092E000CAA0B55
:100B9000BB0BBC01CD010E94B10ADC01CB019C0161
:100BA000AD01C701B6010E949A09DC01CB016C01BD
:100BB0007D018D81282F30E044E6429FC001439F94
:100BC000900D1124092E000CAA0BBB0BBC01CD010A
:100BD0000E94B10ADC01CB019C01AD01C701B60145
:100BE0000E949A09DC01CB01BC01CD010E94800A60
:100BF000DC01CB018F838F81805D0E94EB038CE54C
:100C00000E94EB038EE60E94EB0300002B960FB6CA
:100C1000F894DEBF0FBECDBFDF91CF91FF90EF9074
:100C2000DF90CF900895CF92DF92EF92FF92CF9313
:100C3000DF93CDB7DEB728970FB6F894DEBF0FBEAF
:100C4000CDBF6D837E838F83988789E40E94EB03F9
:100C50008DE30E94EB038D819E81AF81B88520E0FA
:100C600030E048EC52E4BC01CD010E94F70ADC01FF
:100C7000CB019C01AD016D817E818F8198850E94A1
:100C80009A09DC01CB0120E030E048EC52E4BC01E1
:100C9000CD010E94070ADC01CB01BC01CD010E94FD
:100CA000800ADC01CB0189838981805D0E94EB038E
:100CB0008D819E81AF81B88520E030E040E251E433
:100CC000BC01CD010E94F70ADC01CB019C01AD0102
:100CD0006D817E818F8198850E949A09DC01CB010C
:100CE0006C017D018981282F30E044E6429FC001DC
:100CF000439F900D1124092E000CAA0BBB0BBC01C5
:100D0000CD010E94B10ADC01CB019C01AD01C701FC
:100D1000B6010E949A09DC01CB0120E030E040E2FC
:100D200051E4BC01CD010E94070ADC01CB01BC01EA
:100D3000CD010E94800ADC01CB018A838A81805D1B
:100D40000E94EB038D819E81AF81B88520E030E069
:100D500040E251E4BC01CD010E94F70ADC01CB0165
:100D6000BC01CD010E94800ADC01CB018B838B8109
:100D7000805D0E94EB038EE20E94EB038981282FA5
:100D800030E044E6429FC001439F900D1124092E9C
:100D9000000CAA0BBB0BBC01CD010E94B10ADC0107
:100DA000CB019C01AD016D817E818F8198850E9470
:100DB0009A09DC01CB016C017D018A81882F90E0CA
:100DC000880F991F9C01220F331F220F331F820FA0
:100DD000931F092E000CAA0BBB0BBC01CD010E9476
:100DE000B10ADC01CB019C01AD01C701B6010E9433
:100DF0009A09DC01CB016C017D018B81882F90E089
:100E0000092E000CAA0BBB0BBC01CD010E94B10A3C
:100E1000DC01CB019C01AD01C701B6010E949A091A
:100E2000DC01CB0120E030E040E251E4BC01CD0127
:100E30000E94A40BDC01CB01BC01CD010E94800A01
:100E4000DC01CB018C838C81805D0E94EB038CE5FF
:100E50000E94EB038EE60E94EB03000028960FB67B
:100E6000F894DEBF0FBECDBFDF91CF91FF90EF9022
:100E7000DF90CF900895CF92DF92EF92FF92CF93C1
:100E8000DF93CDB7DEB727970FB6F894DEBF0FBE5E
:100E9000CDBF6C837D838E839F8386E40E94EB03AA
:100EA0008DE30E94EB0380E30E94EB038EE20E943D
:100EB000EB0320E030E040E251E46C817D818E81E3
:100EC0009F810E94A40BDC01CB01BC01CD010E94DB
:100ED000800ADC01CB0189838981805D0E94EB035C
:100EE00020E030E048EC52E46C817D818E819F816E
:100EF0000E94A40BDC01CB016C017D018981882F4C
:100F000090E0880F991F9C01220F331F220F331F7F
:100F1000820F931F092E000CAA0BBB0BBC01CD0145
:100F20000E94B10ADC01CB019C01AD01C701B601F1
:100F30000E949A09DC01CB01BC01CD010E94800A0C
:100F4000DC01CB018A838A81805D0E94EB0320E073
:100F500030E04AE754E46C817D818E819F810E945C
:100F6000A40BDC01CB016C017D018A81882F90E00C
:100F7000880F991F9C01220F331F220F331F820FEE
:100F8000931F092E000CAA0BBB0BBC01CD010E94C4
:100F9000B10ADC01CB019C01AD01C701B6010E9481
:100FA0009A09DC01CB016C017D018981282F30E099
:100FB00044E6429FC001439F900D1124092E000C6E
:100FC000AA0BBB0BBC01CD010E94B10ADC01CB0115
:100FD0009C01AD01C701B6010E949A09DC01CB0159
:100FE000BC01CD010E94800ADC01CB018B838B8187
:100FF000805D0E94EB038CE50E94EB038EE60E946D
:10100000EB03000027960FB6F894DEBF0FBECDBFEE
:10101000DF91CF91FF90EF90DF90CF900895CF9226
:10102000DF92EF92FF92CF93DF93CDB7DEB7299790
:101030000FB6F894DEBF0FBECDBF6E837F83888767
:10104000998780E50E94EB038DE30E94EB0320E08B
:1010500030E040E251E46E817F81888599850E946D
:101060009F0B88230CF4D3C06E817F81888599857E
:101070000E94800ADC01CB01982F8DEC989F812D76
:10108000112486958695869589838981805D0E9445
:10109000EB036E817F81888599850E94800ADC013F
:1010A000CB01282F8981880F982F990F990F890FCD
:1010B0008195820F8A838A81805D0E94EB038EE294
:1010C0000E94EB036E817F81888599850E94800A4A
:1010D000DC01CB01882F90E0092E000CAA0BBB0B82
:1010E000BC01CD010E94B10ADC01CB019C01AD0124
:1010F0006E817F81888599850E949A09DC01CB01E8
:1011000020E030E040E251E4BC01CD010E94A40B9C
:10111000DC01CB01BC01CD010E94800ADC01CB01C6
:101120008B838B81805D0E94EB038981882F90E007
:10113000880F991F9C01220F331F220F331F820F2C
:10114000931F092E000CAA0BBB0BBC01CD010E9402
:10115000B10ADC01CB019C01AD016E817F818885E4
:1011600099850E949A09DC01CB016C017D018A817D
:10117000882F90E0092E000CAA0BBB0BBC01CD01FF
:101180000E94B10ADC01CB019C01AD01C701B6018F
:101190000E949A09DC01CB016C017D019B818DECE1
:1011A000989F812D1124869586958695882F90E0AD
:1011B000092E000CAA0BBB0BBC01CD010E94B10A89
:1011C000DC01CB019C01AD01C701B6010E949A0967
:1011D000DC01CB0120E030E048EC52E4BC01CD0161
:1011E0000E94A40BDC01CB0120E030E040E452E49B
:1011F000BC01CD010E949B09DC01CB01BC01CD01EA
:101200000E94800ADC01CB010E94EB037FC06E814B
:101210007F81888599850E94800ADC01CB01805DF1
:101220000E94EB038EE20E94EB036E817F81888532
:1012300099850E94790ADC01CB01092E000CAA0BCA
:10124000BB0BBC01CD010E94B10ADC01CB019C01AA
:10125000AD016E817F81888599850E949A09DC01A4
:10126000CB0120E030E040E251E4BC01CD010E941E
:10127000A40BDC01CB01BC01CD010E94800ADC0182
:10128000CB018C838C81805D0E94EB0320E030E0F9
:1012900048EC52E46E817F81888599850E94A40B79
:1012A000DC01CB0120E030E040E251E4BC01CD01A3
:1012B0000E94F70ADC01CB01BC01CD010E94800A2B
:1012C000DC01CB018D838D81805D0E94EB0320E0EA
:1012D00030E04AE754E46E817F81888599850E94D9
:1012E000A40BDC01CB0120E030E040E251E4BC0182
:1012F000CD010E94F70ADC01CB01BC01CD010E94A7
:10130000800ADC01CB01805D0E94EB038CE50E942A
:10131000EB038EE60E94EB03000029960FB6F894CB
:10132000DEBF0FBECDBFDF91CF91FF90EF90DF907A
:10133000CF9008955058BB27AA270E94B2090C9459
:10134000650B0E94570B38F00E945E0B20F039F4B9
:101350009F3F19F426F40C94540B0EF4E095E7FB30
:101360000C94400BE92F0E94760B58F3BA176207D2
:1013700073078407950720F079F4A6F50C94980B71
:101380000EF4E0950B2EBA2FA02D0B01B9019001A0
:101390000C01CA01A0011124FF27591B99F0593FE4
:1013A00050F4503E68F11A16F040A22F232F342F2C
:1013B0004427585FF3CF469537952795A795F0407A
:1013C0005395C9F77EF41F16BA0B620B730B840B8F
:1013D000BAF09150A1F0FF0FBB1F661F771F881F47
:1013E000C2F70EC0BA0F621F731F841F48F487959F
:1013F00077956795B795F7959E3F08F0B0CF939591
:10140000880F08F09927EE0F9795879508950E9409
:101410001B0A0C94650B0E945E0B58F00E94570B40
:1014200040F029F45F3F29F00C94400B51110C94CB
:10143000990B0C94540B0E94760B68F39923B1F32B
:10144000552391F3951B550BBB27AA2762177307EA
:10145000840738F09F5F5F4F220F331F441FAA1F7E
:10146000A9F335D00E2E3AF0E0E832D0915050403A
:10147000E695001CCAF72BD0FE2F29D0660F771FE8
:10148000881FBB1F261737074807AB07B0E809F0CE
:10149000BB0B802DBF01FF2793585F4F3AF09E3F53
:1014A000510578F00C94400B0C94990B5F3FE4F3DA
:1014B000983ED4F3869577956795B795F7959F5F96
:1014C000C9F7880F911D9695879597F90895E1E0E2
:1014D000660F771F881FBB1F621773078407BA0741
:1014E00020F0621B730B840BBA0BEE1F88F7E0959C
:1014F00008950E94800A6894B1110C94990B089584
:101500000E947E0B88F09F5798F0B92F9927B7510A
:10151000B0F0E1F0660F771F881F991F1AF0BA9597
:10152000C9F714C0B13091F00E94980BB1E0089552
:101530000C94980B672F782F8827B85F39F0B93F44
:10154000CCF3869577956795B395D9F73EF490954A
:101550008095709561957F4F8F4F9F4F0895E894C8
:1015600009C097FB3EF490958095709561957F4FEB
:101570008F4F9F4F9923A9F0F92F96E9BB27939599
:10158000F695879577956795B795F111F8CFFAF4A9
:10159000BB0F11F460FF1BC06F5F7F4F8F4F9F4FDA
:1015A00016C0882311F096E911C0772321F09EE838
:1015B000872F762F05C0662371F096E8862F70E09E
:1015C00060E02AF09A95660F771F881FDAF7880F78
:1015D0009695879597F908950E94570B20F019F07A
:1015E0000E945E0B50F40C94540B0C94990BE92F51
:1015F0000E94760B88F35523B1F3E7FB621773075C
:1016000084079507A8F189F3E92FFF2788232AF09B
:101610003197660F771F881FDAF7952F55274423D8
:1016200032F091505040220F331F441FD2F7BB2796
:10163000E91BF50B621B730B840BB109B1F222F4A9
:10164000620F731F841FB11D31972AF0660F771F39
:10165000881FBB1FEFCF9150504062F041F08823AC
:1016600032F0660F771F881F91505040C1F7939555
:101670000C94460B8695779567959F5FD9F7F7CFC2
:1016800097F99F6780E870E060E008959F3F31F030
:10169000915020F4879577956795B795880F911DA0
:1016A0009695879597F908959FEF80EC089500240B
:1016B0000A941616170618060906089500240A94B7
:1016C00012161306140605060895092E0394000C3D
:1016D00011F4882352F0BB0F40F4BF2B11F460FFCC
:1016E00004C06F5F7F4F8F4F9F4F089557FD9058F5
:1016F000440F551F59F05F3F71F04795880F97FBD6
:10170000991F61F09F3F79F087950895121613068F
:101710001406551FF2CF4695F1DF08C016161706BE
:101720001806991FF1CF86957105610508940895F3
:10173000E894BB2766277727CB0197F908950E9485
:10174000E10C08F48FEF08950E94B70B0C94650B21
:101750000E94570B38F00E945E0B20F0952311F089
:101760000C94400B0C94540B11240C94990B0E9474
:10177000760B70F3959FC1F3950F50E0551F629F54
:10178000F001729FBB27F00DB11D639FAA27F00DDA
:10179000B11DAA1F649F6627B00DA11D661F829F01
:1017A0002227B00DA11D621F739FB00DA11D621FE6
:1017B000839FA00D611D221F749F3327A00D611D03
:1017C000231F849F600D211D822F762F6A2F1124E5
:1017D0009F5750409AF0F1F088234AF0EE0FFF1F18
:1017E000BB1F661F771F881F91505040A9F79E3F6F
:1017F000510580F00C94400B0C94990B5F3FE4F37F
:10180000983ED4F3869577956795B795F795E795C4
:101810009F5FC1F7FE2B880F911D9695879597F9CD
:101820000895FA01EE0FFF1F309621053105A1F151
:101830006115710561F48038BFE39B0749F1689435
:101840009038810561F08038BFEF9B0741F0992304
:101850004AF5FF3FE1053105210519F1E8940894A7
:10186000E795D901AA2329F4AB2FBE2FF85FD0F357
:1018700010C0FF5F70F4A695E0F7F73950F019F04B
:10188000FF3A38F49F779F930DD00F9007FC905844
:10189000089546F00C94540B60E070E080E89FE3FC
:1018A00008954FE79F775F934F933F932F930E9445
:1018B0007D0D2F913F914F915F910E94A40B0C944D
:1018C000AF0C19F416F40C94540B0C94460B0E94B4
:1018D0007E0BB8F39923C9F3B6F39F57550B87FFD7
:1018E0000E94050D0024A0E640EA9001805856951C
:1018F000979528F4805C660F771F881F20F02617C5
:101900003707480730F4621B730B840B20293129F9
:101910004A2BA69517940794202531254A2758F776
:10192000660F771F881F20F026173707480730F407
:10193000620B730B840B200D311D411DA09581F7A7
:10194000B901842F9158880F96958795089529F4A9
:1019500016F00C94400B0C94980B0C94540B0E94B2
:101960007E0BA8F39638A0F707F80F92E8942BE3C4
:101970003AEA48EB5FE70E94BA0B0F920F920F9280
:101980004DB75EB70F920E94C50DE4EBF0E00E94E8
:101990000C0D4F915F91EF91FF91E595EE1FFF1FA9
:1019A00049F0FE57E0684427EE0F441FFA95E1F72F
:1019B0004195550B0E943F0D0F9007FE0C94330D7F
:1019C0000895990F0008550FAA0BE0E8FEEF1616D0
:1019D0001706E807F907C0F012161306E407F50723
:1019E00098F0621B730B840B950B39F40A2661F097
:1019F000232B242B252B21F408950A2609F4A1403A
:101A0000A6958FEF811D811D089591505040660F5E
:101A1000771F881FD2F70895DF93CF931F930F93FB
:101A2000FF92EF92DF927B018C01689406C0DA2E60
:101A3000EF010E94B70BFE01E894A5912591359125
:101A400045915591A6F3EF010E94B209FE0197015D
:101A5000A801DA9469F7DF90EF90FF900F911F9142
:101A6000CF91DF9108959B01AC0160E070E080E8C8
:101A70009FE30C94070A0C94400B0C94460B0E94B5
:101A80007E0BD8F39923C9F3940F511DA3F3915002
:101A9000504094F059F0882332F0660F771F881F6A
:101AA00091505040C1F79E3F51052CF7880F911D72
:101AB0009695879597F908955F3FACF0983E9CF016
:101AC000BB27869577956795B79508F4B160939590
:101AD000C1F7BB0F58F711F460FFE8CF6F5F7F4F7E
:101AE0008F4F9F4FE3CF0C94990B16F00C94460B3D
:101AF0000C94540B68940C94400B0E947E0BA8F33A
:101B00009923C1F3AEF3DF93CF931F930F93FF920B
:101B1000C92FDD2788232AF02197660F771F881F9A
:101B2000DAF720E030E040E85FEB9FE3883920F00F
:101B3000803E38F021968F770E949B09ECEDF0E013
:101B400004C00E949B09E9E0F1E00E940C0D8B01AA
:101B5000BE01EC01FB2E6F5771097595771F880B3D
:101B6000990B0E94B10A28E132E741E35FE30E944A
:101B7000B70BAF2D9801AE01FF900F911F91CF9140
:101B8000DF910E94B2090C94650BFA01DC01AA0FE7
:101B9000BB1F9B01AC01BF5728F4222733274427E2
:101BA000507820C0B75190F4AB2F0024469537955C
:101BB0002795011CA395D2F3002071F0220F331F4B
:101BC000441FB395DAF30ED00C949A096130710575
:101BD000A0E88A07B94630F49B01AC016627772755
:101BE00088279078309621F0208331834283538375
:061BF0000895F894FFCFF8
:00000001FF
