:100000000C945A000C9464000C9464000C946400EA
:100010000C9464000C9464000C9464000C946400D0
:100020000C9464000C9464000C9464000C946400C0
:100030000C9464000C9464000C9464000C946400B0
:100040000C9464000C9464000C9464000C946400A0
:100050000C9464000C9464000C9464000C94640090
:100060000C9464000C9464000C9464000C94640080
:100070000C9464000C9464000C9464000C94640070
:100080000C9464000C9464000C9464000C94640060
:100090000C9464000C9464000C9464000C94640050
:1000A0000C9464000C9464000C9464000C94640040
:1000B0000C94640011241FBECFEFD8E0DEBFCDBF8B
:1000C0000E9466000C94A6020C940000CF93DF936C
:1000D000CDB7DEB780E895E20E94830081E090E032
:1000E0000E9403018BE090E00E94030164E573EE3F
:1000F00087EC92E40E9403016CE47BED89E794E4D1
:100100000E940301EBCFCF93DF9300D0CDB7DEB7D2
:100110009A83898382EC90E022EC30E0F90120811F
:100120002F7BFC01208382EC90E022EC30E0F9018F
:1001300020812F77FC01208381EC90E021EC30E0DE
:10014000F90120812B7FFC01208382EC90E022ECDE
:1001500030E0F90120812260FC01208382EC90E0F4
:1001600022EC30E0F90120812460FC01208384EC42
:1001700090E027E630E0FC013183208381EC90E0C1
:1001800021EC30E0F90120812860FC01208382EC21
:1001900090E022EC30E0F90120812F7EFC012083E9
:1001A00082EC90E022EC30E0F90120812F7EFC010E
:1001B000208382EC90E022EC30E0F9012081277F5F
:1001C000FC01208300000F900F90DF91CF910895E4
:1001D000CF93DF931F92CDB7DEB78983000080EC09
:1001E00090E0FC018081882F90E080729927892B14
:1001F000B1F386EC90E02981FC01208300000F9090
:10020000DF91CF910895CF93DF93CDB7DEB72897D5
:100210000FB6F894DEBF0FBECDBF6D837E838F8394
:10022000988789E40E94E8008DE30E94E8006D81D0
:100230007E818F8198850E949101DC01CB01982FEE
:1002400089E2989F812D112482958F7089838981FD
:10025000805D0E94E8006D817E818F8198850E947B
:100260009101DC01CB01282F30E08981482F50E03B
:100270006CE96403C001659F900D1124820F931FE8
:100280002AE030E0B9010E947E02CB018A838A8194
:10029000805D0E94E8006D817E818F8198850E943B
:1002A0009101DC01CB01382F8A81880F982F990F9B
:1002B000990F890F819529819CE9299F902D1124FF
:1002C000890F830F8B838B81805D0E94E8008EE213
:1002D0000E94E80020E030E040E251E46D817E8140
:1002E0008F8198850E941102DC01CB01BC01CD01F8
:1002F0000E949101DC01CB018C838C81805D0E9486
:10030000E8008AE00E94E8008DE00E94E80000001A
:1003100028960FB6F894DEBF0FBECDBFDF91CF9108
:1003200008950E94F00188F09F5798F0B92F9927FF
:10033000B751B0F0E1F0660F771F881F991F1AF0D0
:10034000BA95C9F714C0B13091F00E940A02B1E029
:1003500008950C940A02672F782F8827B85F39F028
:10036000B93FCCF3869577956795B395D9F73EF469
:1003700090958095709561957F4F8F4F9F4F089511
:1003800097F99F6780E870E060E008959FEF80EC48
:10039000089500240A9416161706180609060895EB
:1003A00000240A9412161306140605060895092E51
:1003B0000394000C11F4882352F0BB0F40F4BF2BC0
:1003C00011F460FF04C06F5F7F4F8F4F9F4F089500
:1003D00057FD9058440F551F59F05F3F71F04795F6
:1003E000880F97FB991F61F09F3F79F087950895DB
:1003F000121613061406551FF2CF4695F1DF08C0FA
:10040000161617061806991FF1CF86957105610516
:1004100008940895E894BB2766277727CB0197F9BE
:1004200008950E9424020C94D7010E94C90138F05B
:100430000E94D00120F0952311F00C94C0010C947F
:10044000C60111240C940B020E94E80170F3959FE1
:10045000C1F3950F50E0551F629FF001729FBB27BB
:10046000F00DB11D639FAA27F00DB11DAA1F649F57
:100470006627B00DA11D661F829F2227B00DA11D0A
:10048000621F739FB00DA11D621F839FA00D611D90
:10049000221F749F3327A00D611D231F849F600DB1
:1004A000211D822F762F6A2F11249F5750409AF0DA
:1004B000F1F088234AF0EE0FFF1FBB1F661F771F66
:1004C000881F91505040A9F79E3F510580F00C9431
:1004D000C0010C940B025F3FE4F3983ED4F3869581
:1004E00077956795B795F795E7959F5FC1F7FE2BD1
:1004F000880F911D9695879597F9089597FB072E7C
:1005000016F4009407D077FD09D00E94920207FCF0
:1005100005D03EF4909581959F4F08957095619513
:100520007F4F0895AA1BBB1B51E107C0AA1FBB1F29
:10053000A617B70710F0A61BB70B881F991F5A956F
:10054000A9F780959095BC01CD010895F894FFCF4F
:00000001FF
